{
  "_format": "hh-sol-artifact-1",
  "contractName": "BVote",
  "sourceName": "contracts/BVote.sol",
  "abi": [
    {
      "inputs": [],
      "stateMutability": "nonpayable",
      "type": "constructor"
    },
    {
      "inputs": [],
      "name": "admin",
      "outputs": [
        {
          "internalType": "address",
          "name": "",
          "type": "address"
        }
      ],
      "stateMutability": "view",
      "type": "function"
    },
    {
      "inputs": [],
      "name": "currentAdmin",
      "outputs": [
        {
          "internalType": "address",
          "name": "",
          "type": "address"
        }
      ],
      "stateMutability": "view",
      "type": "function"
    },
    {
      "inputs": [],
      "name": "getCurrentAdmin",
      "outputs": [
        {
          "internalType": "address",
          "name": "",
          "type": "address"
        }
      ],
      "stateMutability": "view",
      "type": "function"
    },
    {
      "inputs": [
        {
          "internalType": "uint256",
          "name": "_constituency",
          "type": "uint256"
        },
        {
          "internalType": "uint256",
          "name": "_partyNumber",
          "type": "uint256"
        }
      ],
      "name": "getPartyVoteCountByConstituency",
      "outputs": [
        {
          "internalType": "uint256",
          "name": "",
          "type": "uint256"
        }
      ],
      "stateMutability": "view",
      "type": "function"
    },
    {
      "inputs": [
        {
          "internalType": "uint256",
          "name": "_partyNumber",
          "type": "uint256"
        }
      ],
      "name": "getPartyVoteCountByParty",
      "outputs": [
        {
          "internalType": "uint256",
          "name": "",
          "type": "uint256"
        }
      ],
      "stateMutability": "view",
      "type": "function"
    },
    {
      "inputs": [],
      "name": "getTotalVotes",
      "outputs": [
        {
          "internalType": "uint256",
          "name": "",
          "type": "uint256"
        }
      ],
      "stateMutability": "view",
      "type": "function"
    },
    {
      "inputs": [
        {
          "internalType": "bytes32",
          "name": "",
          "type": "bytes32"
        }
      ],
      "name": "loggedInVoters",
      "outputs": [
        {
          "internalType": "bool",
          "name": "",
          "type": "bool"
        }
      ],
      "stateMutability": "view",
      "type": "function"
    },
    {
      "inputs": [
        {
          "internalType": "bytes32",
          "name": "_voterIdHash",
          "type": "bytes32"
        },
        {
          "internalType": "bytes32",
          "name": "_passwordHash",
          "type": "bytes32"
        }
      ],
      "name": "login",
      "outputs": [],
      "stateMutability": "nonpayable",
      "type": "function"
    },
    {
      "inputs": [
        {
          "internalType": "bytes32",
          "name": "_voterIdHash",
          "type": "bytes32"
        }
      ],
      "name": "logout",
      "outputs": [],
      "stateMutability": "nonpayable",
      "type": "function"
    },
    {
      "inputs": [],
      "name": "numParties",
      "outputs": [
        {
          "internalType": "uint256",
          "name": "",
          "type": "uint256"
        }
      ],
      "stateMutability": "view",
      "type": "function"
    },
    {
      "inputs": [
        {
          "internalType": "uint256",
          "name": "",
          "type": "uint256"
        }
      ],
      "name": "partyList",
      "outputs": [
        {
          "internalType": "uint256",
          "name": "partyNumber",
          "type": "uint256"
        },
        {
          "internalType": "string",
          "name": "name",
          "type": "string"
        },
        {
          "internalType": "uint256",
          "name": "voteCount",
          "type": "uint256"
        }
      ],
      "stateMutability": "view",
      "type": "function"
    },
    {
      "inputs": [
        {
          "internalType": "string",
          "name": "",
          "type": "string"
        }
      ],
      "name": "partyNames",
      "outputs": [
        {
          "internalType": "bool",
          "name": "",
          "type": "bool"
        }
      ],
      "stateMutability": "view",
      "type": "function"
    },
    {
      "inputs": [
        {
          "internalType": "uint256",
          "name": "",
          "type": "uint256"
        }
      ],
      "name": "partyNumbers",
      "outputs": [
        {
          "internalType": "bool",
          "name": "",
          "type": "bool"
        }
      ],
      "stateMutability": "view",
      "type": "function"
    },
    {
      "inputs": [
        {
          "internalType": "uint256",
          "name": "_partyNumber",
          "type": "uint256"
        },
        {
          "internalType": "string",
          "name": "_name",
          "type": "string"
        }
      ],
      "name": "registerParty",
      "outputs": [],
      "stateMutability": "nonpayable",
      "type": "function"
    },
    {
      "inputs": [
        {
          "internalType": "bytes32",
          "name": "_voterIdHash",
          "type": "bytes32"
        },
        {
          "internalType": "bytes32",
          "name": "_passwordHash",
          "type": "bytes32"
        },
        {
          "internalType": "uint256",
          "name": "_constituency",
          "type": "uint256"
        }
      ],
      "name": "registerVoter",
      "outputs": [],
      "stateMutability": "nonpayable",
      "type": "function"
    },
    {
      "inputs": [
        {
          "internalType": "uint256",
          "name": "",
          "type": "uint256"
        }
      ],
      "name": "relayers",
      "outputs": [
        {
          "internalType": "address",
          "name": "",
          "type": "address"
        }
      ],
      "stateMutability": "view",
      "type": "function"
    },
    {
      "inputs": [
        {
          "internalType": "address",
          "name": "_newAdmin",
          "type": "address"
        }
      ],
      "name": "setAdmin",
      "outputs": [],
      "stateMutability": "nonpayable",
      "type": "function"
    },
    {
      "inputs": [
        {
          "internalType": "uint256",
          "name": "_constituency",
          "type": "uint256"
        },
        {
          "internalType": "address",
          "name": "_relayer",
          "type": "address"
        }
      ],
      "name": "setRelayer",
      "outputs": [],
      "stateMutability": "nonpayable",
      "type": "function"
    },
    {
      "inputs": [
        {
          "internalType": "uint256",
          "name": "_partyNumber",
          "type": "uint256"
        },
        {
          "internalType": "bytes32",
          "name": "_voterIdHash",
          "type": "bytes32"
        }
      ],
      "name": "vote",
      "outputs": [],
      "stateMutability": "nonpayable",
      "type": "function"
    },
    {
      "inputs": [
        {
          "internalType": "uint256",
          "name": "",
          "type": "uint256"
        },
        {
          "internalType": "uint256",
          "name": "",
          "type": "uint256"
        }
      ],
      "name": "voteCount",
      "outputs": [
        {
          "internalType": "uint256",
          "name": "",
          "type": "uint256"
        }
      ],
      "stateMutability": "view",
      "type": "function"
    },
    {
      "inputs": [
        {
          "internalType": "bytes32",
          "name": "",
          "type": "bytes32"
        }
      ],
      "name": "voters",
      "outputs": [
        {
          "internalType": "bool",
          "name": "isRegistered",
          "type": "bool"
        },
        {
          "internalType": "bytes32",
          "name": "hashedPassword",
          "type": "bytes32"
        },
        {
          "internalType": "bool",
          "name": "hasVoted",
          "type": "bool"
        },
        {
          "internalType": "uint256",
          "name": "constituency",
          "type": "uint256"
        },
        {
          "internalType": "uint256",
          "name": "partyVoted",
          "type": "uint256"
        }
      ],
      "stateMutability": "view",
      "type": "function"
    }
  ],
  "bytecode": "0x6080604052348015600f57600080fd5b50336000806101000a81548173ffffffffffffffffffffffffffffffffffffffff021916908373ffffffffffffffffffffffffffffffffffffffff16021790555033600160006101000a81548173ffffffffffffffffffffffffffffffffffffffff021916908373ffffffffffffffffffffffffffffffffffffffff1602179055506000600981905550612173806100a86000396000f3fe608060405234801561001057600080fd5b50600436106101375760003560e01c8063643d430c116100b8578063a6782c2b1161007c578063a6782c2b14610376578063ba32941414610394578063ba4bcd72146103c4578063e72c79c2146103e2578063f851a44014610412578063fddba7a11461043057610137565b8063643d430c146102d257806368bb8bb6146102f0578063704b6c021461030c5780639a0e7d66146103285780639a48e7f91461034657610137565b806337f91f23116100ff57806337f91f231461020457806341120c10146102385780634951c7e714610254578063635a9f2214610284578063640e79b7146102a057610137565b8063048e5cde1461013c578063151905741461016c57806318bbcb321461019c5780631fb9fb8e146101b8578063331ea626146101d4575b600080fd5b6101566004803603810190610151919061139e565b61044c565b6040516101639190611402565b60405180910390f35b61018660048036038101906101819190611453565b610482565b6040516101939190611402565b60405180910390f35b6101b660048036038101906101b191906114b6565b6104a2565b005b6101d260048036038101906101cd9190611453565b61066a565b005b6101ee60048036038101906101e99190611509565b6107b4565b6040516101fb9190611402565b60405180910390f35b61021e60048036038101906102199190611453565b6107d4565b60405161022f959493929190611554565b60405180910390f35b610252600480360381019061024d91906115a7565b610824565b005b61026e60048036038101906102699190611603565b610a5a565b60405161027b9190611643565b60405180910390f35b61029e6004803603810190610299919061165e565b610a89565b005b6102ba60048036038101906102b59190611509565b610b9c565b6040516102c99392919061171d565b60405180910390f35b6102da610c4e565b6040516102e7919061179c565b60405180910390f35b61030a600480360381019061030591906117b7565b610c78565b005b61032660048036038101906103219190611823565b610f2a565b005b610330610ffc565b60405161033d9190611643565b60405180910390f35b610360600480360381019061035b9190611509565b611052565b60405161036d919061179c565b60405180910390f35b61037e611085565b60405161038b9190611643565b60405180910390f35b6103ae60048036038101906103a99190611603565b61108b565b6040516103bb9190611643565b60405180910390f35b6103cc6110b0565b6040516103d9919061179c565b60405180910390f35b6103fc60048036038101906103f79190611509565b6110d6565b6040516104099190611643565b60405180910390f35b61041a61113c565b604051610427919061179c565b60405180910390f35b61044a60048036038101906104459190611850565b611160565b005b6007818051602081018201805184825260208301602085012081835280955050505050506000915054906101000a900460ff1681565b60086020528060005260406000206000915054906101000a900460ff1681565b806002600082815260200190815260200160002060009054906101000a900473ffffffffffffffffffffffffffffffffffffffff1673ffffffffffffffffffffffffffffffffffffffff163373ffffffffffffffffffffffffffffffffffffffff1614610544576040517f08c379a000000000000000000000000000000000000000000000000000000000815260040161053b90611902565b60405180910390fd5b6003600085815260200190815260200160002060000160009054906101000a900460ff16156105a8576040517f08c379a000000000000000000000000000000000000000000000000000000000815260040161059f9061196e565b60405180910390fd5b60016003600086815260200190815260200160002060000160006101000a81548160ff02191690831515021790555083836040516020016105ea9291906119af565b60405160208183030381529060405280519060200120600360008681526020019081526020016000206001018190555060006003600086815260200190815260200160002060020160006101000a81548160ff02191690831515021790555081600360008681526020019081526020016000206003018190555050505050565b60036000828152602001908152602001600020600301546002600082815260200190815260200160002060009054906101000a900473ffffffffffffffffffffffffffffffffffffffff1673ffffffffffffffffffffffffffffffffffffffff163373ffffffffffffffffffffffffffffffffffffffff1614610722576040517f08c379a000000000000000000000000000000000000000000000000000000000815260040161071990611902565b60405180910390fd5b816008600082815260200190815260200160002060009054906101000a900460ff16610783576040517f08c379a000000000000000000000000000000000000000000000000000000000815260040161077a90611a27565b60405180910390fd5b60006008600085815260200190815260200160002060006101000a81548160ff021916908315150217905550505050565b60066020528060005260406000206000915054906101000a900460ff1681565b60036020528060005260406000206000915090508060000160009054906101000a900460ff16908060010154908060020160009054906101000a900460ff16908060030154908060040154905085565b60008054906101000a900473ffffffffffffffffffffffffffffffffffffffff1673ffffffffffffffffffffffffffffffffffffffff163373ffffffffffffffffffffffffffffffffffffffff16146108b2576040517f08c379a00000000000000000000000000000000000000000000000000000000081526004016108a990611ab9565b60405180910390fd5b6006600083815260200190815260200160002060009054906101000a900460ff1615610913576040517f08c379a000000000000000000000000000000000000000000000000000000000815260040161090a90611b25565b60405180910390fd5b6007816040516109239190611b81565b908152602001604051809103902060009054906101000a900460ff161561097f576040517f08c379a000000000000000000000000000000000000000000000000000000000815260040161097690611be4565b60405180910390fd5b60405180606001604052808381526020018281526020016000815250600460008481526020019081526020016000206000820151816000015560208201518160010190816109cd9190611e10565b506040820151816002015590505060016006600084815260200190815260200160002060006101000a81548160ff0219169083151502179055506001600782604051610a199190611b81565b908152602001604051809103902060006101000a81548160ff02191690831515021790555060096000815480929190610a5190611f11565b91905055505050565b600060056000848152602001908152602001600020600083815260200190815260200160002054905092915050565b6003600083815260200190815260200160002060000160009054906101000a900460ff16610aec576040517f08c379a0000000000000000000000000000000000000000000000000000000008152600401610ae390611fa5565b60405180910390fd5b8181604051602001610aff9291906119af565b60405160208183030381529060405280519060200120600360008481526020019081526020016000206001015414610b6c576040517f08c379a0000000000000000000000000000000000000000000000000000000008152600401610b6390612011565b60405180910390fd5b60016008600084815260200190815260200160002060006101000a81548160ff0219169083151502179055505050565b6004602052806000526040600020600091509050806000015490806001018054610bc590611c33565b80601f0160208091040260200160405190810160405280929190818152602001828054610bf190611c33565b8015610c3e5780601f10610c1357610100808354040283529160200191610c3e565b820191906000526020600020905b815481529060010190602001808311610c2157829003601f168201915b5050505050908060020154905083565b6000600160009054906101000a900473ffffffffffffffffffffffffffffffffffffffff16905090565b60036000828152602001908152602001600020600301546002600082815260200190815260200160002060009054906101000a900473ffffffffffffffffffffffffffffffffffffffff1673ffffffffffffffffffffffffffffffffffffffff163373ffffffffffffffffffffffffffffffffffffffff1614610d30576040517f08c379a0000000000000000000000000000000000000000000000000000000008152600401610d2790611902565b60405180910390fd5b816008600082815260200190815260200160002060009054906101000a900460ff16610d91576040517f08c379a0000000000000000000000000000000000000000000000000000000008152600401610d8890611a27565b60405180910390fd5b6003600084815260200190815260200160002060000160009054906101000a900460ff16610df4576040517f08c379a0000000000000000000000000000000000000000000000000000000008152600401610deb9061207d565b60405180910390fd5b6003600084815260200190815260200160002060020160009054906101000a900460ff1615610e58576040517f08c379a0000000000000000000000000000000000000000000000000000000008152600401610e4f906120e9565b60405180910390fd5b60006003600085815260200190815260200160002060030154905060016003600086815260200190815260200160002060020160006101000a81548160ff0219169083151502179055508460036000868152602001908152602001600020600401819055506005600082815260200190815260200160002060008681526020019081526020016000206000815480929190610ef290611f11565b9190505550600460008681526020019081526020016000206002016000815480929190610f1e90611f11565b91905055505050505050565b60008054906101000a900473ffffffffffffffffffffffffffffffffffffffff1673ffffffffffffffffffffffffffffffffffffffff163373ffffffffffffffffffffffffffffffffffffffff1614610fb8576040517f08c379a0000000000000000000000000000000000000000000000000000000008152600401610faf90611ab9565b60405180910390fd5b80600160006101000a81548173ffffffffffffffffffffffffffffffffffffffff021916908373ffffffffffffffffffffffffffffffffffffffff16021790555050565b600080600090506000600190505b600954811161104a576004600082815260200190815260200160002060020154826110359190612109565b9150808061104290611f11565b91505061100a565b508091505090565b60026020528060005260406000206000915054906101000a900473ffffffffffffffffffffffffffffffffffffffff1681565b60095481565b6005602052816000526040600020602052806000526040600020600091509150505481565b600160009054906101000a900473ffffffffffffffffffffffffffffffffffffffff1681565b600080600090506000600190505b600954811161113257600560008281526020019081526020016000206000858152602001908152602001600020548261111d9190612109565b9150808061112a90611f11565b9150506110e4565b5080915050919050565b60008054906101000a900473ffffffffffffffffffffffffffffffffffffffff1681565b60008054906101000a900473ffffffffffffffffffffffffffffffffffffffff1673ffffffffffffffffffffffffffffffffffffffff163373ffffffffffffffffffffffffffffffffffffffff16146111ee576040517f08c379a00000000000000000000000000000000000000000000000000000000081526004016111e590611ab9565b60405180910390fd5b806002600084815260200190815260200160002060006101000a81548173ffffffffffffffffffffffffffffffffffffffff021916908373ffffffffffffffffffffffffffffffffffffffff1602179055505050565b6000604051905090565b600080fd5b600080fd5b600080fd5b600080fd5b6000601f19601f8301169050919050565b7f4e487b7100000000000000000000000000000000000000000000000000000000600052604160045260246000fd5b6112ab82611262565b810181811067ffffffffffffffff821117156112ca576112c9611273565b5b80604052505050565b60006112dd611244565b90506112e982826112a2565b919050565b600067ffffffffffffffff82111561130957611308611273565b5b61131282611262565b9050602081019050919050565b82818337600083830152505050565b600061134161133c846112ee565b6112d3565b90508281526020810184848401111561135d5761135c61125d565b5b61136884828561131f565b509392505050565b600082601f83011261138557611384611258565b5b813561139584826020860161132e565b91505092915050565b6000602082840312156113b4576113b361124e565b5b600082013567ffffffffffffffff8111156113d2576113d1611253565b5b6113de84828501611370565b91505092915050565b60008115159050919050565b6113fc816113e7565b82525050565b600060208201905061141760008301846113f3565b92915050565b6000819050919050565b6114308161141d565b811461143b57600080fd5b50565b60008135905061144d81611427565b92915050565b6000602082840312156114695761146861124e565b5b60006114778482850161143e565b91505092915050565b6000819050919050565b61149381611480565b811461149e57600080fd5b50565b6000813590506114b08161148a565b92915050565b6000806000606084860312156114cf576114ce61124e565b5b60006114dd8682870161143e565b93505060206114ee8682870161143e565b92505060406114ff868287016114a1565b9150509250925092565b60006020828403121561151f5761151e61124e565b5b600061152d848285016114a1565b91505092915050565b61153f8161141d565b82525050565b61154e81611480565b82525050565b600060a08201905061156960008301886113f3565b6115766020830187611536565b61158360408301866113f3565b6115906060830185611545565b61159d6080830184611545565b9695505050505050565b600080604083850312156115be576115bd61124e565b5b60006115cc858286016114a1565b925050602083013567ffffffffffffffff8111156115ed576115ec611253565b5b6115f985828601611370565b9150509250929050565b6000806040838503121561161a5761161961124e565b5b6000611628858286016114a1565b9250506020611639858286016114a1565b9150509250929050565b60006020820190506116586000830184611545565b92915050565b600080604083850312156116755761167461124e565b5b60006116838582860161143e565b92505060206116948582860161143e565b9150509250929050565b600081519050919050565b600082825260208201905092915050565b60005b838110156116d85780820151818401526020810190506116bd565b60008484015250505050565b60006116ef8261169e565b6116f981856116a9565b93506117098185602086016116ba565b61171281611262565b840191505092915050565b60006060820190506117326000830186611545565b818103602083015261174481856116e4565b90506117536040830184611545565b949350505050565b600073ffffffffffffffffffffffffffffffffffffffff82169050919050565b60006117868261175b565b9050919050565b6117968161177b565b82525050565b60006020820190506117b1600083018461178d565b92915050565b600080604083850312156117ce576117cd61124e565b5b60006117dc858286016114a1565b92505060206117ed8582860161143e565b9150509250929050565b6118008161177b565b811461180b57600080fd5b50565b60008135905061181d816117f7565b92915050565b6000602082840312156118395761183861124e565b5b60006118478482850161180e565b91505092915050565b600080604083850312156118675761186661124e565b5b6000611875858286016114a1565b92505060206118868582860161180e565b9150509250929050565b7f4f6e6c792072656c6179657220666f722074686520636f6e7374697475656e6360008201527f792063616e2063616c6c20746869732066756e6374696f6e0000000000000000602082015250565b60006118ec6038836116a9565b91506118f782611890565b604082019050919050565b6000602082019050818103600083015261191b816118df565b9050919050565b7f566f74657220616c726561647920726567697374657265640000000000000000600082015250565b60006119586018836116a9565b915061196382611922565b602082019050919050565b600060208201905081810360008301526119878161194b565b9050919050565b6000819050919050565b6119a96119a48261141d565b61198e565b82525050565b60006119bb8285611998565b6020820191506119cb8284611998565b6020820191508190509392505050565b7f566f746572206e6f74206c6f6767656420696e00000000000000000000000000600082015250565b6000611a116013836116a9565b9150611a1c826119db565b602082019050919050565b60006020820190508181036000830152611a4081611a04565b9050919050565b7f4f6e6c792061646d696e2063616e2063616c6c20746869732066756e6374696f60008201527f6e00000000000000000000000000000000000000000000000000000000000000602082015250565b6000611aa36021836116a9565b9150611aae82611a47565b604082019050919050565b60006020820190508181036000830152611ad281611a96565b9050919050565b7f5061727479206e756d62657220616c7265616479207573656400000000000000600082015250565b6000611b0f6019836116a9565b9150611b1a82611ad9565b602082019050919050565b60006020820190508181036000830152611b3e81611b02565b9050919050565b600081905092915050565b6000611b5b8261169e565b611b658185611b45565b9350611b758185602086016116ba565b80840191505092915050565b6000611b8d8284611b50565b915081905092915050565b7f5061727479206e616d6520616c72656164792075736564000000000000000000600082015250565b6000611bce6017836116a9565b9150611bd982611b98565b602082019050919050565b60006020820190508181036000830152611bfd81611bc1565b9050919050565b7f4e487b7100000000000000000000000000000000000000000000000000000000600052602260045260246000fd5b60006002820490506001821680611c4b57607f821691505b602082108103611c5e57611c5d611c04565b5b50919050565b60008190508160005260206000209050919050565b60006020601f8301049050919050565b600082821b905092915050565b600060088302611cc67fffffffffffffffffffffffffffffffffffffffffffffffffffffffffffffffff82611c89565b611cd08683611c89565b95508019841693508086168417925050509392505050565b6000819050919050565b6000611d0d611d08611d0384611480565b611ce8565b611480565b9050919050565b6000819050919050565b611d2783611cf2565b611d3b611d3382611d14565b848454611c96565b825550505050565b600090565b611d50611d43565b611d5b818484611d1e565b505050565b5b81811015611d7f57611d74600082611d48565b600181019050611d61565b5050565b601f821115611dc457611d9581611c64565b611d9e84611c79565b81016020851015611dad578190505b611dc1611db985611c79565b830182611d60565b50505b505050565b600082821c905092915050565b6000611de760001984600802611dc9565b1980831691505092915050565b6000611e008383611dd6565b9150826002028217905092915050565b611e198261169e565b67ffffffffffffffff811115611e3257611e31611273565b5b611e3c8254611c33565b611e47828285611d83565b600060209050601f831160018114611e7a5760008415611e68578287015190505b611e728582611df4565b865550611eda565b601f198416611e8886611c64565b60005b82811015611eb057848901518255600182019150602085019450602081019050611e8b565b86831015611ecd5784890151611ec9601f891682611dd6565b8355505b6001600288020188555050505b505050505050565b7f4e487b7100000000000000000000000000000000000000000000000000000000600052601160045260246000fd5b6000611f1c82611480565b91507fffffffffffffffffffffffffffffffffffffffffffffffffffffffffffffffff8203611f4e57611f4d611ee2565b5b600182019050919050565b7f566f746572206973206e6f742072656769737465726564000000000000000000600082015250565b6000611f8f6017836116a9565b9150611f9a82611f59565b602082019050919050565b60006020820190508181036000830152611fbe81611f82565b9050919050565b7f496e636f72726563742050617373776f72640000000000000000000000000000600082015250565b6000611ffb6012836116a9565b915061200682611fc5565b602082019050919050565b6000602082019050818103600083015261202a81611fee565b9050919050565b7f566f746572206e6f742072656769737465726564000000000000000000000000600082015250565b60006120676014836116a9565b915061207282612031565b602082019050919050565b600060208201905081810360008301526120968161205a565b9050919050565b7f566f74657220616c726561647920766f74656400000000000000000000000000600082015250565b60006120d36013836116a9565b91506120de8261209d565b602082019050919050565b60006020820190508181036000830152612102816120c6565b9050919050565b600061211482611480565b915061211f83611480565b925082820190508082111561213757612136611ee2565b5b9291505056fea2646970667358221220279ddf2c719c5b2d2bf1c33f48e4b74113c9b6e7270fa833d6eeb3621c5a1dfd64736f6c634300081b0033",
  "linkReferences": {},
  "deployedLinkReferences": {}
}